{
  "contractName": "Voting",
  "abi": [
    {
      "anonymous": false,
      "inputs": [
        {
          "indexed": true,
          "internalType": "address",
          "name": "previousOwner",
          "type": "address"
        },
        {
          "indexed": true,
          "internalType": "address",
          "name": "newOwner",
          "type": "address"
        }
      ],
      "name": "OwnershipTransferred",
      "type": "event"
    },
    {
      "anonymous": false,
      "inputs": [
        {
          "indexed": false,
          "internalType": "uint256",
          "name": "_proposalId",
          "type": "uint256"
        }
      ],
      "name": "ProposalRegistered",
      "type": "event"
    },
    {
      "anonymous": false,
      "inputs": [
        {
          "indexed": false,
          "internalType": "address",
          "name": "_voter",
          "type": "address"
        },
        {
          "indexed": false,
          "internalType": "uint256",
          "name": "_proposalId",
          "type": "uint256"
        }
      ],
      "name": "Voted",
      "type": "event"
    },
    {
      "anonymous": false,
      "inputs": [
        {
          "indexed": false,
          "internalType": "address",
          "name": "_voterAddress",
          "type": "address"
        }
      ],
      "name": "VoterRegistered",
      "type": "event"
    },
    {
      "anonymous": false,
      "inputs": [
        {
          "indexed": false,
          "internalType": "enum Voting.WorkflowStatus",
          "name": "_previousStatus",
          "type": "uint8"
        },
        {
          "indexed": false,
          "internalType": "enum Voting.WorkflowStatus",
          "name": "_newStatus",
          "type": "uint8"
        }
      ],
      "name": "WorkflowStatusChange",
      "type": "event"
    },
    {
      "inputs": [],
      "name": "owner",
      "outputs": [
        {
          "internalType": "address",
          "name": "",
          "type": "address"
        }
      ],
      "stateMutability": "view",
      "type": "function",
      "constant": true
    },
    {
      "inputs": [],
      "name": "renounceOwnership",
      "outputs": [],
      "stateMutability": "nonpayable",
      "type": "function"
    },
    {
      "inputs": [
        {
          "internalType": "address",
          "name": "newOwner",
          "type": "address"
        }
      ],
      "name": "transferOwnership",
      "outputs": [],
      "stateMutability": "nonpayable",
      "type": "function"
    },
    {
      "inputs": [],
      "name": "workflowStatus",
      "outputs": [
        {
          "internalType": "enum Voting.WorkflowStatus",
          "name": "",
          "type": "uint8"
        }
      ],
      "stateMutability": "view",
      "type": "function",
      "constant": true
    },
    {
      "inputs": [
        {
          "internalType": "address",
          "name": "_addr",
          "type": "address"
        }
      ],
      "name": "getVoter",
      "outputs": [
        {
          "components": [
            {
              "internalType": "bool",
              "name": "isRegistered",
              "type": "bool"
            },
            {
              "internalType": "bool",
              "name": "hasVoted",
              "type": "bool"
            },
            {
              "internalType": "uint128",
              "name": "votedProposalId",
              "type": "uint128"
            }
          ],
          "internalType": "struct Voting.Voter",
          "name": "",
          "type": "tuple"
        }
      ],
      "stateMutability": "view",
      "type": "function",
      "constant": true
    },
    {
      "inputs": [
        {
          "internalType": "uint256",
          "name": "_id",
          "type": "uint256"
        }
      ],
      "name": "getOneProposal",
      "outputs": [
        {
          "components": [
            {
              "internalType": "string",
              "name": "description",
              "type": "string"
            },
            {
              "internalType": "uint128",
              "name": "voteCount",
              "type": "uint128"
            }
          ],
          "internalType": "struct Voting.Proposal",
          "name": "",
          "type": "tuple"
        }
      ],
      "stateMutability": "view",
      "type": "function",
      "constant": true
    },
    {
      "inputs": [],
      "name": "getWinningProposal",
      "outputs": [
        {
          "components": [
            {
              "internalType": "string",
              "name": "description",
              "type": "string"
            },
            {
              "internalType": "uint128",
              "name": "voteCount",
              "type": "uint128"
            }
          ],
          "internalType": "struct Voting.Proposal",
          "name": "",
          "type": "tuple"
        }
      ],
      "stateMutability": "view",
      "type": "function",
      "constant": true
    },
    {
      "inputs": [
        {
          "internalType": "address",
          "name": "_addr",
          "type": "address"
        }
      ],
      "name": "addVoter",
      "outputs": [],
      "stateMutability": "nonpayable",
      "type": "function"
    },
    {
      "inputs": [
        {
          "internalType": "string",
          "name": "_desc",
          "type": "string"
        }
      ],
      "name": "addProposal",
      "outputs": [],
      "stateMutability": "nonpayable",
      "type": "function"
    },
    {
      "inputs": [
        {
          "internalType": "uint128",
          "name": "_id",
          "type": "uint128"
        }
      ],
      "name": "setVote",
      "outputs": [],
      "stateMutability": "nonpayable",
      "type": "function"
    },
    {
      "inputs": [],
      "name": "startProposalsRegistering",
      "outputs": [],
      "stateMutability": "nonpayable",
      "type": "function"
    },
    {
      "inputs": [],
      "name": "endProposalsRegistering",
      "outputs": [],
      "stateMutability": "nonpayable",
      "type": "function"
    },
    {
      "inputs": [],
      "name": "startVotingSession",
      "outputs": [],
      "stateMutability": "nonpayable",
      "type": "function"
    },
    {
      "inputs": [],
      "name": "endVotingSession",
      "outputs": [],
      "stateMutability": "nonpayable",
      "type": "function"
    },
    {
      "inputs": [],
      "name": "tallyVotes",
      "outputs": [],
      "stateMutability": "nonpayable",
      "type": "function"
    }
  ],
  "bytecode": "0x60806040523480156200001157600080fd5b5062000032620000266200003860201b60201c565b6200004060201b60201c565b62000104565b600033905090565b60008060009054906101000a900473ffffffffffffffffffffffffffffffffffffffff169050816000806101000a81548173ffffffffffffffffffffffffffffffffffffffff021916908373ffffffffffffffffffffffffffffffffffffffff1602179055508173ffffffffffffffffffffffffffffffffffffffff168173ffffffffffffffffffffffffffffffffffffffff167f8be0079c531659141344cd1fd0a4f28419497f9722a3daafe3b4186f6b6457e060405160405180910390a35050565b6126ce80620001146000396000f3fe608060405234801561001057600080fd5b50600436106100f55760003560e01c8063a513462011610097578063d4f50f9811610066578063d4f50f98146101ee578063ee74c6781461021e578063f2fde38b14610228578063f4ab9adf14610244576100f5565b8063a5134620146101b2578063a7bfab16146101d0578063c7038a4e146101da578063c88af42f146101e4576100f5565b8063715018a6116100d3578063715018a61461013c5780638da5cb5b14610146578063a1edffa214610164578063a2788cce14610182576100f5565b806329e5c5fd146100fa5780632fdae3c514610116578063378a217814610132575b600080fd5b610114600480360381019061010f919061189a565b610260565b005b610130600480360381019061012b919061192c565b610761565b005b61013a610a35565b005b610144610b1b565b005b61014e610b2f565b60405161015b91906119ba565b60405180910390f35b61016c610b58565b6040516101799190611a4c565b60405180910390f35b61019c60048036038101906101979190611a9d565b610b6b565b6040516101a99190611baf565b60405180910390f35b6101ba610d12565b6040516101c79190611baf565b60405180910390f35b6101d8610ecd565b005b6101e2610fb3565b005b6101ec611099565b005b61020860048036038101906102039190611bfd565b61117e565b6040516102159190611c87565b60405180910390f35b6102266112e6565b005b610242600480360381019061023d9190611bfd565b6113cc565b005b61025e60048036038101906102599190611bfd565b61144f565b005b600460003373ffffffffffffffffffffffffffffffffffffffff1673ffffffffffffffffffffffffffffffffffffffff16815260200190815260200160002060000160009054906101000a900460ff166102ef576040517f08c379a00000000000000000000000000000000000000000000000000000000081526004016102e690611cff565b60405180910390fd5b60036005811115610303576103026119d5565b5b600260009054906101000a900460ff166005811115610325576103246119d5565b5b14610365576040517f08c379a000000000000000000000000000000000000000000000000000000000815260040161035c90611d91565b60405180910390fd5b60011515600460003373ffffffffffffffffffffffffffffffffffffffff1673ffffffffffffffffffffffffffffffffffffffff16815260200190815260200160002060000160019054906101000a900460ff161515036103fb576040517f08c379a00000000000000000000000000000000000000000000000000000000081526004016103f290611dfd565b60405180910390fd5b600380549050816fffffffffffffffffffffffffffffffff1610610454576040517f08c379a000000000000000000000000000000000000000000000000000000000815260040161044b90611e69565b60405180910390fd5b80600460003373ffffffffffffffffffffffffffffffffffffffff1673ffffffffffffffffffffffffffffffffffffffff16815260200190815260200160002060000160026101000a8154816fffffffffffffffffffffffffffffffff02191690836fffffffffffffffffffffffffffffffff1602179055506001600460003373ffffffffffffffffffffffffffffffffffffffff1673ffffffffffffffffffffffffffffffffffffffff16815260200190815260200160002060000160016101000a81548160ff0219169083151502179055506003816fffffffffffffffffffffffffffffffff168154811061054e5761054d611e89565b5b9060005260206000209060020201600101600081819054906101000a90046fffffffffffffffffffffffffffffffff168092919061058b90611ee7565b91906101000a8154816fffffffffffffffffffffffffffffffff02191690836fffffffffffffffffffffffffffffffff16021790555050600160109054906101000a90046fffffffffffffffffffffffffffffffff166fffffffffffffffffffffffffffffffff166003826fffffffffffffffffffffffffffffffff168154811061061957610618611e89565b5b906000526020600020906002020160010160009054906101000a90046fffffffffffffffffffffffffffffffff166fffffffffffffffffffffffffffffffff1611156107255780600160006101000a8154816fffffffffffffffffffffffffffffffff02191690836fffffffffffffffffffffffffffffffff1602179055506003816fffffffffffffffffffffffffffffffff16815481106106be576106bd611e89565b5b906000526020600020906002020160010160009054906101000a90046fffffffffffffffffffffffffffffffff16600160106101000a8154816fffffffffffffffffffffffffffffffff02191690836fffffffffffffffffffffffffffffffff1602179055505b7f4d99b957a2bc29a30ebd96a7be8e68fe50a3c701db28a91436490b7d53870ca43382604051610756929190611f5a565b60405180910390a150565b600460003373ffffffffffffffffffffffffffffffffffffffff1673ffffffffffffffffffffffffffffffffffffffff16815260200190815260200160002060000160009054906101000a900460ff166107f0576040517f08c379a00000000000000000000000000000000000000000000000000000000081526004016107e790611cff565b60405180910390fd5b60016005811115610804576108036119d5565b5b600260009054906101000a900460ff166005811115610826576108256119d5565b5b14610866576040517f08c379a000000000000000000000000000000000000000000000000000000000815260040161085d90611fcf565b60405180910390fd5b60405160200161087590612015565b60405160208183030381529060405280519060200120828260405160200161089e929190612071565b60405160208183030381529060405280519060200120036108f4576040517f08c379a00000000000000000000000000000000000000000000000000000000081526004016108eb90612107565b60405180910390fd5b6003604051806040016040528084848080601f016020809104026020016040519081016040528093929190818152602001838380828437600081840152601f19601f82011690508083019250505050505050815260200160006fffffffffffffffffffffffffffffffff16815250908060018154018082558091505060019003906000526020600020906002020160009091909190915060008201518160000190805190602001906109a7929190611742565b5060208201518160010160006101000a8154816fffffffffffffffffffffffffffffffff02191690836fffffffffffffffffffffffffffffffff16021790555050507f92e393e9b54e2f801d3ea4beb0c5e71a21cc34a5d34b77d0fb8a3aa1650dc18f6001600380549050610a1c9190612127565b604051610a29919061216a565b60405180910390a15050565b610a3d6115f8565b60046005811115610a5157610a506119d5565b5b600260009054906101000a900460ff166005811115610a7357610a726119d5565b5b14610ab3576040517f08c379a0000000000000000000000000000000000000000000000000000000008152600401610aaa906121d1565b60405180910390fd5b6005600260006101000a81548160ff02191690836005811115610ad957610ad86119d5565b5b02179055507f0a97a4ee45751e2abf3e4fc8946939630b11b371ea8ae39ccdc3056e98f5cc3f60046005604051610b119291906121f1565b60405180910390a1565b610b236115f8565b610b2d6000611676565b565b60008060009054906101000a900473ffffffffffffffffffffffffffffffffffffffff16905090565b600260009054906101000a900460ff1681565b610b736117c8565b600460003373ffffffffffffffffffffffffffffffffffffffff1673ffffffffffffffffffffffffffffffffffffffff16815260200190815260200160002060000160009054906101000a900460ff16610c02576040517f08c379a0000000000000000000000000000000000000000000000000000000008152600401610bf990611cff565b60405180910390fd5b60038281548110610c1657610c15611e89565b5b9060005260206000209060020201604051806040016040529081600082018054610c3f90612249565b80601f0160208091040260200160405190810160405280929190818152602001828054610c6b90612249565b8015610cb85780601f10610c8d57610100808354040283529160200191610cb8565b820191906000526020600020905b815481529060010190602001808311610c9b57829003601f168201915b505050505081526020016001820160009054906101000a90046fffffffffffffffffffffffffffffffff166fffffffffffffffffffffffffffffffff166fffffffffffffffffffffffffffffffff16815250509050919050565b610d1a6117c8565b600580811115610d2d57610d2c6119d5565b5b600260009054906101000a900460ff166005811115610d4f57610d4e6119d5565b5b14610d8f576040517f08c379a0000000000000000000000000000000000000000000000000000000008152600401610d86906122c6565b60405180910390fd5b6003600160009054906101000a90046fffffffffffffffffffffffffffffffff166fffffffffffffffffffffffffffffffff1681548110610dd357610dd2611e89565b5b9060005260206000209060020201604051806040016040529081600082018054610dfc90612249565b80601f0160208091040260200160405190810160405280929190818152602001828054610e2890612249565b8015610e755780601f10610e4a57610100808354040283529160200191610e75565b820191906000526020600020905b815481529060010190602001808311610e5857829003601f168201915b505050505081526020016001820160009054906101000a90046fffffffffffffffffffffffffffffffff166fffffffffffffffffffffffffffffffff166fffffffffffffffffffffffffffffffff1681525050905090565b610ed56115f8565b60036005811115610ee957610ee86119d5565b5b600260009054906101000a900460ff166005811115610f0b57610f0a6119d5565b5b14610f4b576040517f08c379a0000000000000000000000000000000000000000000000000000000008152600401610f4290611d91565b60405180910390fd5b6004600260006101000a81548160ff02191690836005811115610f7157610f706119d5565b5b02179055507f0a97a4ee45751e2abf3e4fc8946939630b11b371ea8ae39ccdc3056e98f5cc3f60036004604051610fa99291906121f1565b60405180910390a1565b610fbb6115f8565b60006005811115610fcf57610fce6119d5565b5b600260009054906101000a900460ff166005811115610ff157610ff06119d5565b5b14611031576040517f08c379a000000000000000000000000000000000000000000000000000000000815260040161102890612358565b60405180910390fd5b6001600260006101000a81548160ff02191690836005811115611057576110566119d5565b5b02179055507f0a97a4ee45751e2abf3e4fc8946939630b11b371ea8ae39ccdc3056e98f5cc3f6000600160405161108f9291906121f1565b60405180910390a1565b6110a16115f8565b600160058111156110b5576110b46119d5565b5b600260009054906101000a900460ff1660058111156110d7576110d66119d5565b5b14611117576040517f08c379a000000000000000000000000000000000000000000000000000000000815260040161110e906123ea565b60405180910390fd5b60028060006101000a81548160ff0219169083600581111561113c5761113b6119d5565b5b02179055507f0a97a4ee45751e2abf3e4fc8946939630b11b371ea8ae39ccdc3056e98f5cc3f600160026040516111749291906121f1565b60405180910390a1565b6111866117f4565b600460003373ffffffffffffffffffffffffffffffffffffffff1673ffffffffffffffffffffffffffffffffffffffff16815260200190815260200160002060000160009054906101000a900460ff16611215576040517f08c379a000000000000000000000000000000000000000000000000000000000815260040161120c90611cff565b60405180910390fd5b600460008373ffffffffffffffffffffffffffffffffffffffff1673ffffffffffffffffffffffffffffffffffffffff1681526020019081526020016000206040518060600160405290816000820160009054906101000a900460ff161515151581526020016000820160019054906101000a900460ff161515151581526020016000820160029054906101000a90046fffffffffffffffffffffffffffffffff166fffffffffffffffffffffffffffffffff166fffffffffffffffffffffffffffffffff16815250509050919050565b6112ee6115f8565b60026005811115611302576113016119d5565b5b600260009054906101000a900460ff166005811115611324576113236119d5565b5b14611364576040517f08c379a000000000000000000000000000000000000000000000000000000000815260040161135b9061247c565b60405180910390fd5b6003600260006101000a81548160ff0219169083600581111561138a576113896119d5565b5b02179055507f0a97a4ee45751e2abf3e4fc8946939630b11b371ea8ae39ccdc3056e98f5cc3f600260036040516113c29291906121f1565b60405180910390a1565b6113d46115f8565b600073ffffffffffffffffffffffffffffffffffffffff168173ffffffffffffffffffffffffffffffffffffffff1603611443576040517f08c379a000000000000000000000000000000000000000000000000000000000815260040161143a9061250e565b60405180910390fd5b61144c81611676565b50565b6114576115f8565b6000600581111561146b5761146a6119d5565b5b600260009054906101000a900460ff16600581111561148d5761148c6119d5565b5b146114cd576040517f08c379a00000000000000000000000000000000000000000000000000000000081526004016114c4906125a0565b60405180910390fd5b60011515600460008373ffffffffffffffffffffffffffffffffffffffff1673ffffffffffffffffffffffffffffffffffffffff16815260200190815260200160002060000160009054906101000a900460ff16151503611563576040517f08c379a000000000000000000000000000000000000000000000000000000000815260040161155a9061260c565b60405180910390fd5b6001600460008373ffffffffffffffffffffffffffffffffffffffff1673ffffffffffffffffffffffffffffffffffffffff16815260200190815260200160002060000160006101000a81548160ff0219169083151502179055507fb6be2187d059cc2a55fe29e0e503b566e1e0f8c8780096e185429350acffd3dd816040516115ed91906119ba565b60405180910390a150565b61160061173a565b73ffffffffffffffffffffffffffffffffffffffff1661161e610b2f565b73ffffffffffffffffffffffffffffffffffffffff1614611674576040517f08c379a000000000000000000000000000000000000000000000000000000000815260040161166b90612678565b60405180910390fd5b565b60008060009054906101000a900473ffffffffffffffffffffffffffffffffffffffff169050816000806101000a81548173ffffffffffffffffffffffffffffffffffffffff021916908373ffffffffffffffffffffffffffffffffffffffff1602179055508173ffffffffffffffffffffffffffffffffffffffff168173ffffffffffffffffffffffffffffffffffffffff167f8be0079c531659141344cd1fd0a4f28419497f9722a3daafe3b4186f6b6457e060405160405180910390a35050565b600033905090565b82805461174e90612249565b90600052602060002090601f01602090048101928261177057600085556117b7565b82601f1061178957805160ff19168380011785556117b7565b828001600101855582156117b7579182015b828111156117b657825182559160200191906001019061179b565b5b5090506117c4919061182b565b5090565b60405180604001604052806060815260200160006fffffffffffffffffffffffffffffffff1681525090565b604051806060016040528060001515815260200160001515815260200160006fffffffffffffffffffffffffffffffff1681525090565b5b8082111561184457600081600090555060010161182c565b5090565b600080fd5b600080fd5b60006fffffffffffffffffffffffffffffffff82169050919050565b61187781611852565b811461188257600080fd5b50565b6000813590506118948161186e565b92915050565b6000602082840312156118b0576118af611848565b5b60006118be84828501611885565b91505092915050565b600080fd5b600080fd5b600080fd5b60008083601f8401126118ec576118eb6118c7565b5b8235905067ffffffffffffffff811115611909576119086118cc565b5b602083019150836001820283011115611925576119246118d1565b5b9250929050565b6000806020838503121561194357611942611848565b5b600083013567ffffffffffffffff8111156119615761196061184d565b5b61196d858286016118d6565b92509250509250929050565b600073ffffffffffffffffffffffffffffffffffffffff82169050919050565b60006119a482611979565b9050919050565b6119b481611999565b82525050565b60006020820190506119cf60008301846119ab565b92915050565b7f4e487b7100000000000000000000000000000000000000000000000000000000600052602160045260246000fd5b60068110611a1557611a146119d5565b5b50565b6000819050611a2682611a04565b919050565b6000611a3682611a18565b9050919050565b611a4681611a2b565b82525050565b6000602082019050611a616000830184611a3d565b92915050565b6000819050919050565b611a7a81611a67565b8114611a8557600080fd5b50565b600081359050611a9781611a71565b92915050565b600060208284031215611ab357611ab2611848565b5b6000611ac184828501611a88565b91505092915050565b600081519050919050565b600082825260208201905092915050565b60005b83811015611b04578082015181840152602081019050611ae9565b83811115611b13576000848401525b50505050565b6000601f19601f8301169050919050565b6000611b3582611aca565b611b3f8185611ad5565b9350611b4f818560208601611ae6565b611b5881611b19565b840191505092915050565b611b6c81611852565b82525050565b60006040830160008301518482036000860152611b8f8282611b2a565b9150506020830151611ba46020860182611b63565b508091505092915050565b60006020820190508181036000830152611bc98184611b72565b905092915050565b611bda81611999565b8114611be557600080fd5b50565b600081359050611bf781611bd1565b92915050565b600060208284031215611c1357611c12611848565b5b6000611c2184828501611be8565b91505092915050565b60008115159050919050565b611c3f81611c2a565b82525050565b606082016000820151611c5b6000850182611c36565b506020820151611c6e6020850182611c36565b506040820151611c816040850182611b63565b50505050565b6000606082019050611c9c6000830184611c45565b92915050565b600082825260208201905092915050565b7f596f75277265206e6f74206120766f7465720000000000000000000000000000600082015250565b6000611ce9601283611ca2565b9150611cf482611cb3565b602082019050919050565b60006020820190508181036000830152611d1881611cdc565b9050919050565b7f566f74696e672073657373696f6e20686176656e74207374617274656420796560008201527f7400000000000000000000000000000000000000000000000000000000000000602082015250565b6000611d7b602183611ca2565b9150611d8682611d1f565b604082019050919050565b60006020820190508181036000830152611daa81611d6e565b9050919050565b7f596f75206861766520616c726561647920766f74656400000000000000000000600082015250565b6000611de7601683611ca2565b9150611df282611db1565b602082019050919050565b60006020820190508181036000830152611e1681611dda565b9050919050565b7f50726f706f73616c206e6f7420666f756e640000000000000000000000000000600082015250565b6000611e53601283611ca2565b9150611e5e82611e1d565b602082019050919050565b60006020820190508181036000830152611e8281611e46565b9050919050565b7f4e487b7100000000000000000000000000000000000000000000000000000000600052603260045260246000fd5b7f4e487b7100000000000000000000000000000000000000000000000000000000600052601160045260246000fd5b6000611ef282611852565b91506fffffffffffffffffffffffffffffffff8203611f1457611f13611eb8565b5b600182019050919050565b6000819050919050565b6000611f44611f3f611f3a84611852565b611f1f565b611a67565b9050919050565b611f5481611f29565b82525050565b6000604082019050611f6f60008301856119ab565b611f7c6020830184611f4b565b9392505050565b7f50726f706f73616c7320617265206e6f7420616c6c6f77656420796574000000600082015250565b6000611fb9601d83611ca2565b9150611fc482611f83565b602082019050919050565b60006020820190508181036000830152611fe881611fac565b9050919050565b50565b6000611fff600083611ca2565b915061200a82611fef565b600082019050919050565b6000602082019050818103600083015261202e81611ff2565b9050919050565b82818337600083830152505050565b60006120508385611ca2565b935061205d838584612035565b61206683611b19565b840190509392505050565b6000602082019050818103600083015261208c818486612044565b90509392505050565b7f566f7573206e6520706f7576657a20706173206e65207269656e2070726f706f60008201527f7365720000000000000000000000000000000000000000000000000000000000602082015250565b60006120f1602383611ca2565b91506120fc82612095565b604082019050919050565b60006020820190508181036000830152612120816120e4565b9050919050565b600061213282611a67565b915061213d83611a67565b9250828210156121505761214f611eb8565b5b828203905092915050565b61216481611a67565b82525050565b600060208201905061217f600083018461215b565b92915050565b7f566f74696e672073657373696f6e20686176656e7420656e6465642079657400600082015250565b60006121bb601f83611ca2565b91506121c682612185565b602082019050919050565b600060208201905081810360008301526121ea816121ae565b9050919050565b60006040820190506122066000830185611a3d565b6122136020830184611a3d565b9392505050565b7f4e487b7100000000000000000000000000000000000000000000000000000000600052602260045260246000fd5b6000600282049050600182168061226157607f821691505b6020821081036122745761227361221a565b5b50919050565b7f54686520766f7465206973206e6f74206f766572207965740000000000000000600082015250565b60006122b0601883611ca2565b91506122bb8261227a565b602082019050919050565b600060208201905081810360008301526122df816122a3565b9050919050565b7f5265676973746572696e672070726f706f73616c732063616e7420626520737460008201527f6172746564206e6f770000000000000000000000000000000000000000000000602082015250565b6000612342602983611ca2565b915061234d826122e6565b604082019050919050565b6000602082019050818103600083015261237181612335565b9050919050565b7f5265676973746572696e672070726f706f73616c7320686176656e742073746160008201527f7274656420796574000000000000000000000000000000000000000000000000602082015250565b60006123d4602883611ca2565b91506123df82612378565b604082019050919050565b60006020820190508181036000830152612403816123c7565b9050919050565b7f5265676973746572696e672070726f706f73616c73207068617365206973206e60008201527f6f742066696e6973686564000000000000000000000000000000000000000000602082015250565b6000612466602b83611ca2565b91506124718261240a565b604082019050919050565b6000602082019050818103600083015261249581612459565b9050919050565b7f4f776e61626c653a206e6577206f776e657220697320746865207a65726f206160008201527f6464726573730000000000000000000000000000000000000000000000000000602082015250565b60006124f8602683611ca2565b91506125038261249c565b604082019050919050565b60006020820190508181036000830152612527816124eb565b9050919050565b7f566f7465727320726567697374726174696f6e206973206e6f74206f70656e2060008201527f7965740000000000000000000000000000000000000000000000000000000000602082015250565b600061258a602383611ca2565b91506125958261252e565b604082019050919050565b600060208201905081810360008301526125b98161257d565b9050919050565b7f416c726561647920726567697374657265640000000000000000000000000000600082015250565b60006125f6601283611ca2565b9150612601826125c0565b602082019050919050565b60006020820190508181036000830152612625816125e9565b9050919050565b7f4f776e61626c653a2063616c6c6572206973206e6f7420746865206f776e6572600082015250565b6000612662602083611ca2565b915061266d8261262c565b602082019050919050565b6000602082019050818103600083015261269181612655565b905091905056fea2646970667358221220b0694886af8e32c0ae8ec37657ea89c6f6c857430e0ddc8aff3d99a011335f3964736f6c634300080e0033",
  "immutableReferences": {},
  "source": "// SPDX-License-Identifier: MIT\r\n\r\npragma solidity 0.8.14;\r\n\r\nimport \"@openzeppelin/contracts/access/Ownable.sol\";\r\n\r\n/// @title Decentralized Voting\r\n/// @author Quentin de Chateaubriant\r\n/// @notice You can use this contract to vote on proposals\r\n/// @dev Contract has been audited for security and gas optimization\r\ncontract Voting is Ownable {\r\n\r\n    uint128 winningProposalID;\r\n    uint128 maxVotes;\r\n\r\n    struct Voter {\r\n        bool isRegistered;\r\n        bool hasVoted;\r\n        uint128 votedProposalId;\r\n    }\r\n\r\n    struct Proposal {\r\n        string description;\r\n        uint128 voteCount;\r\n    }\r\n\r\n    enum  WorkflowStatus {\r\n        RegisteringVoters,\r\n        ProposalsRegistrationStarted,\r\n        ProposalsRegistrationEnded,\r\n        VotingSessionStarted,\r\n        VotingSessionEnded,\r\n        VotesTallied\r\n    }\r\n\r\n    WorkflowStatus public workflowStatus;\r\n    Proposal[] proposalsArray;\r\n    mapping (address => Voter) voters;\r\n\r\n\r\n    event VoterRegistered(address _voterAddress);\r\n    event WorkflowStatusChange(WorkflowStatus _previousStatus, WorkflowStatus _newStatus);\r\n    event ProposalRegistered(uint _proposalId);\r\n    event Voted (address _voter, uint _proposalId);\r\n\r\n    /// @dev Modifier allowing only users registered in \"voters\" mapping to vote\r\n    modifier onlyVoters() {\r\n        require(voters[msg.sender].isRegistered, \"You're not a voter\");\r\n        _;\r\n    }\r\n\r\n    // ::::::::::::: GETTERS ::::::::::::: //\r\n\r\n    /// @notice Returns information about the voter whose address is given as a param\r\n    /// @param _addr the address of the voter\r\n    function getVoter(address _addr) external onlyVoters view returns (Voter memory) {\r\n        return voters[_addr];\r\n    }\r\n\r\n    /// @notice Returns information about the proposal which id is given as a param\r\n    /// @param _id the id of the proposal\r\n    function getOneProposal(uint _id) external onlyVoters view returns (Proposal memory) {\r\n        return proposalsArray[_id];\r\n    }\r\n\r\n    /// @notice Returns the winning proposal\r\n    /// @return A Proposal struct\r\n    /// @dev The workflowStatus needs to be set to \"VotesTallied\" for the function to execute\r\n    function getWinningProposal() external view returns (Proposal memory) {\r\n        require(workflowStatus == WorkflowStatus.VotesTallied, \"The vote is not over yet\");\r\n        return proposalsArray[winningProposalID];\r\n    }\r\n\r\n\r\n    // ::::::::::::: REGISTRATION ::::::::::::: //\r\n\r\n    /// @notice Function called by the contract owner to register voters\r\n    /// @param _addr The address of the voter to be registered\r\n    /// @dev Only the owner can execute this function, which raises a \"VoterRegistered\" event\r\n    function addVoter(address _addr) external onlyOwner {\r\n        require(workflowStatus == WorkflowStatus.RegisteringVoters, 'Voters registration is not open yet');\r\n        require(voters[_addr].isRegistered != true, 'Already registered');\r\n\r\n        voters[_addr].isRegistered = true;\r\n        emit VoterRegistered(_addr);\r\n    }\r\n\r\n\r\n    // ::::::::::::: PROPOSAL ::::::::::::: //\r\n\r\n    /// @notice Function called to add a proposal\r\n    /// @param _desc Represents the description of the proposal as a String\r\n    /// @dev Only voters can execute this function, not the owner. It raises a \"ProposalRegistered\" event.\r\n    function addProposal(string calldata _desc) external onlyVoters {\r\n        require(workflowStatus == WorkflowStatus.ProposalsRegistrationStarted, 'Proposals are not allowed yet');\r\n        require(keccak256(abi.encode(_desc)) != keccak256(abi.encode(\"\")), 'Vous ne pouvez pas ne rien proposer');\r\n        // voir que desc est different des autres\r\n\r\n        proposalsArray.push(Proposal(_desc, 0));\r\n        emit ProposalRegistered(proposalsArray.length-1);\r\n    }\r\n\r\n    // ::::::::::::: VOTE ::::::::::::: //\r\n\r\n    /**\r\n    @notice Function used to allow voters to vote for a proposal\r\n    @param _id The id of the psoposal for which the voter decides to vote\r\n    @dev Only voters can execute this function. Voterc can only vote once. The function also calculates after each votes which proposal\r\n    is winning.\r\n    */\r\n    function setVote( uint128 _id) external onlyVoters {\r\n        require(workflowStatus == WorkflowStatus.VotingSessionStarted, 'Voting session havent started yet');\r\n        require(voters[msg.sender].hasVoted != true, 'You have already voted');\r\n        require(_id < proposalsArray.length, 'Proposal not found'); // pas oblig, et pas besoin du >0 car uint\r\n\r\n        voters[msg.sender].votedProposalId = _id;\r\n        voters[msg.sender].hasVoted = true;\r\n        proposalsArray[_id].voteCount++;\r\n        if(proposalsArray[_id].voteCount > maxVotes) {\r\n            winningProposalID = _id;\r\n            maxVotes = proposalsArray[_id].voteCount;\r\n        }\r\n\r\n        emit Voted(msg.sender, _id);\r\n    }\r\n\r\n    // ::::::::::::: STATE ::::::::::::: //\r\n\r\n    /// @notice Series of state management functions used by the contract owner to set the workflow status\r\n    /// @dev Only the owner can execute these. They are used to organize the vote by restricting some functions use ans allowing others\r\n    function startProposalsRegistering() external onlyOwner {\r\n        require(workflowStatus == WorkflowStatus.RegisteringVoters, 'Registering proposals cant be started now');\r\n        workflowStatus = WorkflowStatus.ProposalsRegistrationStarted;\r\n        emit WorkflowStatusChange(WorkflowStatus.RegisteringVoters, WorkflowStatus.ProposalsRegistrationStarted);\r\n    }\r\n\r\n    function endProposalsRegistering() external onlyOwner {\r\n        require(workflowStatus == WorkflowStatus.ProposalsRegistrationStarted, 'Registering proposals havent started yet');\r\n        workflowStatus = WorkflowStatus.ProposalsRegistrationEnded;\r\n        emit WorkflowStatusChange(WorkflowStatus.ProposalsRegistrationStarted, WorkflowStatus.ProposalsRegistrationEnded);\r\n    }\r\n\r\n    function startVotingSession() external onlyOwner {\r\n        require(workflowStatus == WorkflowStatus.ProposalsRegistrationEnded, 'Registering proposals phase is not finished');\r\n        workflowStatus = WorkflowStatus.VotingSessionStarted;\r\n        emit WorkflowStatusChange(WorkflowStatus.ProposalsRegistrationEnded, WorkflowStatus.VotingSessionStarted);\r\n    }\r\n\r\n    function endVotingSession() external onlyOwner {\r\n        require(workflowStatus == WorkflowStatus.VotingSessionStarted, 'Voting session havent started yet');\r\n        workflowStatus = WorkflowStatus.VotingSessionEnded;\r\n        emit WorkflowStatusChange(WorkflowStatus.VotingSessionStarted, WorkflowStatus.VotingSessionEnded);\r\n    }\r\n\r\n    function tallyVotes() external onlyOwner {\r\n        require(workflowStatus == WorkflowStatus.VotingSessionEnded, 'Voting session havent ended yet');\r\n        workflowStatus = WorkflowStatus.VotesTallied;\r\n        emit WorkflowStatusChange(WorkflowStatus.VotingSessionEnded, WorkflowStatus.VotesTallied);\r\n    }\r\n}",
  "sourcePath": "C:\\Users\\quent\\Documents\\Developpement Web\\Web3\\Alyra\\Solidity-voting\\truffle\\contracts\\Voting.sol",
  "compiler": {
    "name": "solc",
    "version": "0.8.14+commit.80d49f37.Emscripten.clang"
  },
  "schemaVersion": "3.4.7",
  "updatedAt": "2022-07-15T06:47:12.851Z",
  "networkType": "ethereum",
  "devdoc": {
    "author": "Quentin de Chateaubriant",
    "details": "Contract has been audited for security and gas optimization",
    "kind": "dev",
    "methods": {
      "addProposal(string)": {
        "details": "Only voters can execute this function, not the owner. It raises a \"ProposalRegistered\" event.",
        "params": {
          "_desc": "Represents the description of the proposal as a String"
        }
      },
      "addVoter(address)": {
        "details": "Only the owner can execute this function, which raises a \"VoterRegistered\" event",
        "params": {
          "_addr": "The address of the voter to be registered"
        }
      },
      "getOneProposal(uint256)": {
        "params": {
          "_id": "the id of the proposal"
        }
      },
      "getVoter(address)": {
        "params": {
          "_addr": "the address of the voter"
        }
      },
      "getWinningProposal()": {
        "details": "The workflowStatus needs to be set to \"VotesTallied\" for the function to execute",
        "returns": {
          "_0": "A Proposal struct"
        }
      },
      "owner()": {
        "details": "Returns the address of the current owner."
      },
      "renounceOwnership()": {
        "details": "Leaves the contract without owner. It will not be possible to call `onlyOwner` functions anymore. Can only be called by the current owner. NOTE: Renouncing ownership will leave the contract without an owner, thereby removing any functionality that is only available to the owner."
      },
      "setVote(uint128)": {
        "details": "Only voters can execute this function. Voterc can only vote once. The function also calculates after each votes which proposal is winning.",
        "params": {
          "_id": "The id of the psoposal for which the voter decides to vote"
        }
      },
      "startProposalsRegistering()": {
        "details": "Only the owner can execute these. They are used to organize the vote by restricting some functions use ans allowing others"
      },
      "transferOwnership(address)": {
        "details": "Transfers ownership of the contract to a new account (`newOwner`). Can only be called by the current owner."
      }
    },
    "title": "Decentralized Voting",
    "version": 1
  },
  "userdoc": {
    "kind": "user",
    "methods": {
      "addProposal(string)": {
        "notice": "Function called to add a proposal"
      },
      "addVoter(address)": {
        "notice": "Function called by the contract owner to register voters"
      },
      "getOneProposal(uint256)": {
        "notice": "Returns information about the proposal which id is given as a param"
      },
      "getVoter(address)": {
        "notice": "Returns information about the voter whose address is given as a param"
      },
      "getWinningProposal()": {
        "notice": "Returns the winning proposal"
      },
      "setVote(uint128)": {
        "notice": "Function used to allow voters to vote for a proposal"
      },
      "startProposalsRegistering()": {
        "notice": "Series of state management functions used by the contract owner to set the workflow status"
      }
    },
    "notice": "You can use this contract to vote on proposals",
    "version": 1
  }
}